:030000000212F2F7
:0C12F200787FE4F6D8FD75810F021339F7
:0A19B6003F065B4F666D7D077F6FF3
:1012650082010001872E00000000000000822B0093
:1012750000810D00811600812A008103008117007D
:10128500823C0000811500841100000000821800D6
:101295000082060000813800820B00008B40FC6054
:1012A500DAF266B6BEE0FEF602813B00814BFB81B9
:1012B5001E00813900811000812D01823E000081D0
:1012C5000A0082040000812900823600008A1F007E
:1012D500000000000000000000841A0000000081EA
:0C12E5004C00820E0000813A00813500B0
:1018D000C2A5E47800F27F407E9C1218727800E284
:1018E00004F2E2C3940440EED2A57F307E75021864
:0118F0007285
:10150100E47874F27F407E9C1218727874E204F2DF
:10151100E2C3940440EED2A57F307E75121872C2E8
:10152100A5E47874F27F407E9C1218727874E2040C
:10153100F2E2C3940440EED2A57F307E7512187298
:10154100C2A5E47874F27F407E9C1218727874E22E
:1015510004F2E2C3940440EED2A57F307E750218F6
:011561007217
:10190800759850E4F587D2AC758920758DF8758B7C
:06191800F8D28ED2AF22CE
:0F198400C2ACEF2430F5993099FDC299D2AC2254
:09191E00121927121927121927CA
:0C192700C2AC8F993099FDC299D2AC225D
:10112C00780DE225E02458FF7816E225E0FD12192F
:10113C0048EF7F00FEC006C007780DE225E024587A
:10114C00FF7816E225E004FD121948EFFDD0E02DE2
:10115C00FFD0E03400FE783EF208EFF27804E2FCB7
:10116C0008E2FDC39FEC9E501BE47829F2783EE226
:10117C00FE08E2FFC39D7837F2EE9C18F27804EE7D
:10118C00F208EFF27804E2FE08E2FFC3783FE29F38
:10119C0018E29E501E78297401F2783EE2FE08E2B5
:1011AC00FFC37805E29F7937F318E29E19F3EEF24C
:1011BC0008EFF212186E12186E12186E7F207E4E07
:0311CC0002187294
:071406007873EEF208EFF22B
:10140D00E47877F212186E7877E204F2E2C3940F63
:10141D0040F27F4B1219277810E275F00A8475F0AF
:10142D000A84E5F02430FF121927E275F00A84E5ED
:10143D00F02430FF1219277F4D121927780108E289
:10144D0075F00A8475F00A84E5F02430FF1219272F
:10145D001808E275F00A84E5F02430FF1219277F91
:10146D00411219277F321219277874E2700218E29F
:0B147D007005781704F222E47817F2E3
:011488002241
:100B4700E4FB74402BF8E2FF782EE2B5070EEBFFCB
:100B5700780BE4F208EFF2783BE204F20BEBB40A0D
:100B6700E1783BE2700A782EE27005783BE204F206
:100B7700783BE27010782EE2B4020A783BE204F286
:100B8700784B74FDF2E4FB74402BF8E2FF782FE218
:100B9700B50716EB75F00AA4FFAEF0780CE22FF25A
:100BA70018E23EF2783BE204F20BEBB40AD9783B49
:100BB700E2B4010A782FE27005783BE204F2783B51
:100BC700E2B40110782FE2B4020A783BE204F2782B
:100BD7004B74FDF2783BE2B4010B782FE2B4EE05DB
:100BE700781E7401F2E4FB74402BF8E2FF7830E2E0
:100BF700B50716EB75F064A4FFAEF0780CE22FF2A0
:100C070018E23EF2783BE204F20BEBB40AD9783BE8
:100C1700E2B4020A7830E27005783BE204F2783BEE
:100C2700E2B402107830E2B4020A783BE204F278C8
:100C37004B74FDF2E4FB74402BF8E2FF7831E2B528
:100C47000719EBFF7E007C037DE81210E4780CE2C5
:100C57002FF218E23EF2783BE204F20BEBB40AD62D
:100C6700783BE2B4030A7831E27005783BE204F29C
:100C7700783BE2B403107831E2B4020A783BE2042D
:100C8700F2784B74FDF27832E2FFB4B605783BE2B6
:100C970004F2783BE2B40406EF7003E204F2783B17
:100CA700E2B4050A780BE2FE08E2FF121406E478C4
:100CB7003BF2780BF208F2784B74FBF2E4781EF201
:010CC700220A
:1011CF0030900B3092FD2092FD2092F480FBE4FFD3
:1011DF002092FD3092FD309005782EE204F2782EA9
:1011EF00E225E0F20FEFB408E7E4FF2092FD309222
:1011FF00FD309005782FE204F2782FE225E0F20F10
:10120F00EFB408E7E4FF2092FD3092FD30900578AF
:10121F0030E204F27830E225E0F20FEFB408E7E4B1
:10122F00FF2092FD3092FD3090057831E204F27884
:10123F0031E225E0F20FEFB408E7E4FF2092FD3032
:10124F0092FD3090057832E204F27832E225E0F236
:05125F000FEFB403E7EE
:011264002267
:101562007873121113000000007819E2700218E279
:10157200704D787320A71DE2FC08E2FD08E2FE0828
:10158200E22401FFE43EFEE43DFDE43CFC787312FC
:101592001107800712111300000000E47F2C7E0166
:1015A200FDFC7873E2FB08E2F908E2FA08E2CBF804
:0F15B200D31210F640B37818E4F20804F280AABE
:0115C1002207
:100CC80012186E12186E12186E12186E12186E1212
:100CD800186E12186E12186E12186E12186EC293D1
:100CE800C294E47874F27F107E271218727874E246
:100CF80004F2E2C3941940EED293D294E47874F2E9
:100D080012186E7874E204F2E2C3943740F21218B3
:100D18006E12186E12186E12186E12186E12186E65
:100D280012186E7829E2705F7875121113000000AE
:100D3800007836E2FE08E2FFE4FCFD7875E2FB0885
:100D4800E2F908E2FA08E2CBF8C31210F650387F4D
:100D5800707E17121872C2947F347E21121872D2D4
:100D6800947F707E171218727875E2FC08E2FD080D
:100D7800E2FE08E22401FFE43EFEE43DFDE43CFC23
:100D8800787512110780AA7829E26401705F787576
:100D9800121113000000007836E2FE08E2FFE4FCBE
:100DA800FD7875E2FB08E2F908E2FA08E2CBF8C33D
:100DB8001210F650387F707E17121872C2937F3463
:100DC8007E21121872D2937F707E1712187278756E
:100DD800E2FC08E2FD08E2FE08E22401FFE43EFE30
:100DE800E43DFDE43CFC787512110780AA780A748A
:020DF80014F2F3
:010DFA0022D6
:0617C900E2FF7E007C003F
:0417CF00AB07AA06B4
:1017D3007F017E00EFA805088005C333CE33CED842
:1017E300F9FFEE5AFEEF5B4E7E0060047F0180023C
:0217F3007F0075
:0117F50022D1
:1009950078157401F2781D7440F2781AF2781C14F7
:0309A500F218F253
:1009A800C290C2927FE87E03121872D2927FE87ECC
:1009B80003121872C2927FF47E01121872D2907FCD
:1009C800F47E01121872D2927FE87E03121872C266
:1009D800927FF47E01121872C2907FF47E01121881
:1009E80072E47873F27873E2FDC394085033781A8E
:1009F8001217C9EF64014E7004D2908002C290D2DF
:100A0800927FE87E03121872C2927FF47E01121858
:100A180072C2907FF47E011218727873E204F28039
:100A2800C4E47873F27873E2FDC394085033781BFA
:100A38001217C9EF64014E7004D2908002C290D29E
:100A4800927FE87E03121872C2927FF47E01121818
:100A580072C2907FF47E011218727873E204F280F9
:100A6800C4E47873F27873E2FDC394085033781CB9
:100A78001217C9EF64014E7004D2908002C290D25E
:100A8800927FE87E03121872C2927FF47E011218D8
:100A980072C2907FF47E011218727873E204F280B9
:100AA800C4E47873F27873E2FDC394085033781D78
:100AB8001217C9EF64014E7004D2908002C290D21E
:100AC800927FE87E03121872C2927FF47E01121898
:100AD80072C2907FF47E011218727873E204F28079
:100AE800C4C290D2927FE87E03121872C2927FF439
:100AF8007E01121872C2907FF47E01121872C290A1
:100B0800D2927FE87E03121872C2927FF47E01129D
:100B18001872C2907FF47E01121872D292D2907F1E
:100B2800E87E03121872C292D2907FF47E011218E6
:0E0B380072C2907F887E13121872D292D290F1
:010B4600228C
:10176300781D7473F2187440F2EF75F00A12107C4E
:10177300AEF0EE9019B693781AF2EF75F00A1210E4
:101783007CFF75F00A12107CAEF0EE9019B69378D8
:051793001BF20209A891
:10165800782DE2FF75F00A84AEF0EE9019B6937813
:101668001AF2EF75F00A8475F00A84AEF0EE93086A
:10167800F27810E2FF75F00A84AEF0EE93248078D9
:101688001CF2EF75F00A84FF75F00A84AEF0EE9351
:0516980008F20209A8A0
:100FC700E47873F27F107E271218727873E204F2C6
:100FD700E2C3946440EE120CC8C293E47873F27FC4
:100FE700107E271218727873E204F2E2C394644009
:100FF700EEE47873F27F107E271218727873E2049A
:10100700F2E2C3946440EEE47873F27F107E271215
:1010170018727873E204F2E2C3946440EEE47873E2
:10102700F27F107E271218727873E204F2E2C394FB
:101037006440EEE47873F27F107E2712187278739B
:10104700E204F2E2C3946440EEE47873F27F107E28
:10105700271218727873E204F2E2C3946440EED266
:1010670093C29612186E12186ED2967F987E3A1215
:051077001872021501D2
:03001E00020FC707
:10002600E47871F208F27839E27008121993783997
:10003600744DF27839E2B44D1120950E12186E12F5
:10004600186E12186E78397411F27839E2B4110EFE
:1000560012001E12186E12186E78397412F2783960
:10006600E2B412162096077401F2E4780AF2209799
:100076000978397442F2E4780AF27839E264427017
:10008600291215627819E26401700218E2701BC227
:10009600B578397404F2E4780AF27818F208F2C2F4
:1000A60090C29212186ED290D2927839E2640460AD
:1000B6000302017812186E12186E12186E12186E5C
:1000C600121562C2B4E47818F208F27807E27002F8
:1000D60018E2702BC2B512186E12186E12186E1234
:1000E600186E12186E12186E12186ED2B57FD07E68
:1000F600071218727807E22401F218E23400F2308F
:1001060093157810E204F2E2C3941440037414F2D7
:100116007F607EEA1218723094157810E214F2E2CB
:10012600C3940150037401F27F607EEA121872785C
:1001360010E2FF1217632095397F607EEA1218726B
:1001460012099AE47806F20812186D12186E12183F
:100156006E12186E12186E12186E78397401F278D3
:100166000A7410F2782D7401F27816F27810E2789B
:100176000DF27839E26401600302059E780AE260B6
:10018600030202BB7815E270127F011219271219B9
:10019600277F0412191E7F0D1219277815E26401B4
:1001A6007017780EF208F2780AE270057F4A121983
:1001B600277F4512191E12192112186E12186E1277
:1001C600186E12186E12186E12186E12186E121819
:1001D6006E12186E12186E12186E12186E12186EB3
:1001E60012186E12186E12186E12186E12186E12FF
:1001F600186E12186E12186E12186E12186E1218E9
:100206006E12186E12186E12186E12186E12186E82
:1002160012186E12186E12186E12186E12186E12CE
:10022600186E12186E12186E12186E12186E1218B8
:100236006E12186E12186E12186E12186E12186E52
:1002460012186E12186E12186E12186E12186E129E
:10025600186E12186E12186E12186E12186E121888
:100266006E12186E12186E12186E12186E12186E22
:1002760012186E12186E12186E12186E12186E126E
:10028600186E12186E12186E12186E12186E121858
:100296006E12186E12186E12186E12186E12186EF2
:1002A60012186E12186E12186E12186E12186E123E
:1002B600186E12186E780AE26401703CC2B4781D9A
:1002C6007440F2781AF2781C14F2187438F2120993
:1002D600A8E4781FF208F208F208F208F208F20819
:1002E600F208F208F208F208F208F208F208F278C8
:1002F6000A742CF2E4783AF2780AE2642C6003027B
:10030600040F783AE26402600302040F782308E2DD
:100316007816F2FF782108E2780DF2EF6401701387
:10032600E225E02458FFE4FD12197112186E121826
:100336006E8000782508E2FF780DE225E02458FD5E
:100346007816E225E0FB1218F112186E782708E2FB
:10035600FF780DE225E02458FD7816E225E004FB3F
:100366001218F112186E12186E12186E12186E12FA
:10037600186E781F08E2FF1219270808E2FF121903
:10038600270808E2FF121927780DE225E02458FF16
:100396007816E225E0FD121948121927780DE22594
:1003A600E02458FF7816E225E004FD1219481219D8
:1003B60027782908E2FF1219270808E2FF121927F1
:1003C6007829E2FE08E2FF64FA4E70077839744233
:1003D600F2800FAD077808EDF2780DE2FB7F46124A
:1003E60018F1E4781FF208F208F208F208F208F2AF
:1003F60008F208F208F208F208F208F208F208F227
:100406007816F2780DF2783AF2780AE26410600310
:100416000204F6C2AC7F987E3A1218727F907E0173
:1004260012187212112C12186E12186E12186E1201
:10043600186E12186E12186E12186E12186E1218A6
:100446006E12186E12186E7807E2700218E27028A3
:10045600C2B512186E12186E12186E12186E121895
:100466006E12186ED2B57FD07E071218727807E228
:100476002401F218E23400F2C2B47F987E3A1218D0
:100486007212186E12186E12165812186E12186E14
:1004960012186E12186E12165812186E12186E1264
:1004A600186E12186EC2B7782DE2FF7801E4F208D2
:1004B600EFF220953B209338D2B7781D7440F2783E
:1004C6001AF2781C14F2187438F21209A812186E6F
:1004D60012186E12186E1209A812186E12186E12E1
:1004E60009A812186EE47806F208F2780A7403F284
:1004F600780AE26403600302059E12186E12186EF3
:1005060012186E12186E12186E12186E121562D22A
:10051600B4E47818F208F2C2B512186E12186E1208
:10052600186E12186E12186E12186E12186E1218B5
:100536006E12186E12186E12186E12186E12186E4F
:1005460012186E12186E12186E12186E12186E129B
:10055600186E12186E12186E12186E12186EC2B538
:1005660012186E12186E12186E12186E12186ED2BB
:10057600B57FD07E0712187212186E12186E1218F6
:100586006E12186E120CC8740912186B12186E12BD
:10059600186E12186E12186E7839E264076003023C
:1005A6000645781D7440F2781AF2781C7477F218B2
:1005B6007438F21209A8209504C2B58002D2B51289
:1005C600186E12186E12186E12186E12186E121815
:1005D6006E12186E12186E12186E12186E12186EAF
:1005E60012186E12186E12186E12186E12186E12FB
:1005F600186E7807E2700218E2703FC2B512186EE4
:1006060012186E12186E12186E12186E12186E12DA
:10061600186E12186E12186E12186E121562D2B477
:10062600E47818F208F2D2B57FD07E0712187278F5
:1006360007E22401F218E23400F2C2AC12186E7816
:1006460039E26409704612186E12186E7F407E9C5D
:10065600121872C2967F407E9C121872D296783912
:10066600740212186D12186E12186E12186E121885
:100676006E12186E12186E12186E12186E12186E0E
:1006860012186E12186E12186E12186E7839E2640D
:100696000D7029781D7450F2781A7440F2781C7423
:1006A60079F2187450F21209A8E412186B12186E37
:1006B60012186E12186E12186E12186E7839E264DD
:1006C6000260030200391211CF120B4712186E1284
:1006D600186E12186E12186E12186E12186E7803B3
:1006E600E2FF700A7817E27005783CF208F2EF64D0
:1006F60001600A7817E26401600302088E783DE221
:100706002401F218E23400F2D308E2940418E294C9
:1007160000500302088EE4F208F27803F27817F22A
:10072600784BE264FD780D7041E225E02458FF78AD
:1007360016E225E0FD121948EFFE780CE22400FFD0
:1007460018E23EFEC006C007780DE225E02458FFF9
:100756007816E225E004FD121948EFFDD0E02D7869
:100766000CF2D0E0340018F28043E225E02458FF72
:100776007816E225E0FD121948EF7F00FEC006C09C
:1007860007780DE225E02458FF7816E225E004FDFF
:10079600121948EFFDD0E02DFFD0E03400FE780BB3
:1007A600E2FC08E2FDC3EF9DF2EE9C18F27816E239
:1007B60064017015780DE225E02448FFE4FD121966
:1007C6007112186E12186E8000780BE2FF780DE237
:1007D60025E02448FD7816E225E0FB1218F11218F0
:1007E6006E780CE2FF08E225E02448FD7816E22543
:1007F600E004FB1218F112186E12186E12186E121F
:10080600186E12186E12186612186E12186E1218DA
:100816006E12186EC2B5121562C2B4E47818F208E8
:1008260012186D12186E12186E12186E12186ED2F9
:10083600B57FD07E0712187212186E12186E121833
:100846006E12186E12186E12186E12186E12186E3C
:1008560012186E12186E12099512186E12186E1270
:10086600186E12186E12186E12186ED2AC12186E1E
:1008760012186E12186E12186E12186E12186E1268
:10088600186E12186E12186E3095030200393094E5
:100896000302003912186612186E12186E12186EBC
:1008A60012186E12186EC2B5121562C2B4E4781828
:1008B600F20812186D12186E12186E12186E1218AF
:1008C6006ED2B57FD07E0712187212186E12186E8D
:1008D60012186E12186E12186E12186E12186E1208
:1008E600186E12186E12186E12186E12186E1218F2
:1008F6006E12186E12186E12186E12186E12186E8C
:1009060012186E12186E12186E12186E12186E12D7
:10091600186E12186E12186E12186E12186E1218C1
:100926006E12099512186E12186E12186E12186E43
:1009360012186E12186E12186E12186E12186E12A7
:10094600186E12186E12186E12186E12186E121891
:100956006E12186E12186E12186E12186E12186E2B
:1009660012186E12186EC29712186E12186E12189E
:100976006E12186EC29712186E12186ED29712184F
:0F0986006E12186E12186E12186ED2AC02003973
:0C1993001219D3121611121908C2A62254
:0619D300D2AFE4F5C722CB
:0C186600E4780AF2047839F27F207E4E0C
:10187200D3EF9400EE9400400E7D0A1DEDB402FBFE
:07188200EF1F70EC1E80E96E
:01188900223C
:10195D00C2AFC28C758901758CD8758AF0D2B9D297
:04196D00A9D2AF222A
:03002300020EF8D2
:100EF800C0E0C0D075D008C2AC209803020FC0E58E
:100F080099B40A11780FE2700218E27008783A046E
:100F1800F2783504F2E599B40110780FE2700218FE
:100F2800E27007783A04F27835F2E599B40312785A
:100F38000FE2700218E27009783A04F27835740307
:100F4800F2AF99780EE2FC08E2FD25E0241FF8E4F0
:100F5800F208EFF2C298ED64064C7051782CE26406
:100F68000D700218E27051780EF208F2783A7402A5
:100F7800F27835E2FFB4010B7839E2B40105780A5A
:100F88007401F2EF640270307839E2642C702978C9
:100F98002108E2780DF2782308E27816F27825081D
:100FA800E2782BF2782708E2782CF2800B780FE2AF
:0F0FB8002401F218E23400F2D2ACD0D0D0E032F3
:10148900FFFF0303FFFF0303030303030607FFFF34
:101499000000030303030303F3F333333F3F030361
:1014A9000303030333333333FFFF0303030303034B
:1014B9003F3F3030FFFF0000000003033F3F33335D
:1014C900F3F3030303030303FFFF3333F3F30303CB
:1014D9000303030303030303FFFF000000000303E7
:1014E900FFFF3333FFFF0303030303033F3F33339B
:0814F900FFFF030303030303DB
:07181C001219C07F647E0079
:10182300D3EF9400EE940040147D7D7C00ED1D7099
:0D183300011CED4C70F7EF1F70E61E80E306
:011840002285
:10184100C2A27D087C000000EF54806004D2A48015
:1018510002C2A4C2A2EF25E0FFD2A2ED1D70011CBD
:04186100ED4C70E2F8
:011865002260
:0A19C000C2A3C2A1121841D2A12255
:0B193300F9E2F5827583001210B7FF87
:0A193E00D2A3C2A1121841D2A122C7
:10188A007BB0AF031219C07F101219C0E4FF1219FE
:10189A00C0E4FAE4FF12193E0AEAB480F60BEBB48C
:0218AA00B8E0A4
:0118AC002219
:0618AD00E2FF08E204FD69
:0218B300AB0781
:1018B500AA03ED24B0FF1219C0EAC4540FFA24108C
:0B18C500FF1219C0EB540FFF0219C006
:1016110012181FC2A012181FD2A012181F7FA012E9
:1016210019C07FC81219C07FA31219C07F2C1218CC
:101631001C7F2E12181C7F2F1219C07F241219C073
:101641007F811219C07F1012181C7FAF1219C07F41
:07165100401219C002188AC3
:100DFB00784FEBF208EAF208E9F2784DEFF208EDE2
:010E0B00F2F4
:100E0C001218B3E47853F27852E2FD75F008A4FF9F
:100E1C0008E2FCC39FE5F06480F8748098400302FC
:100E2C000EF7ECB5050A784DE2FF08E204020EDD80
:100E3C007852E275F002A4FF08E2F9B5070FE4B5A9
:100E4C00F00B784DE2FF08E22402020EDD7852E24C
:100E5C0075F003A4FFE9B5070EE4B5F00A784DE28E
:100E6C00FF08E22403806A7852E275F004A4FF08BC
:100E7C00E2F9B5070EE4B5F00A784DE2FF08E2247A
:100E8C0004804E7852E275F005A4FFE9B5070EE434
:100E9C00B5F00A784DE2FF08E2240580347852E27E
:100EAC0075F006A4FF08E2F9B5070EE4B5F00A7870
:100EBC004DE2FF08E2240680187852E275F007A490
:100ECC00FFE9B50710E4B5F00C784DE2FF08E22419
:100EDC0007FD1218B3784FE2FB08E2FA08E27853E8
:0B0EEC001219337853E204F2020E13D7
:010EF70022D8
:1015C2007856EBF208EAF208E9F27854EFF208ED05
:0115D200F226
:1015D3001218B3E4785AF27859E2FD75F002A4FFC9
:1015E30008E2FCC39FE5F06480F8748098501EEC19
:1015F300B5050578541218AD7856E2FB08E2FA08EF
:0D160300E2785A121933785AE204F280CAD4
:0116100022B7
:1016E100785DEBF208EAF208E9F2785BEFF208EDD7
:0116F100F206
:1016F2001218B3E47861F27860E2FF08E2FEC39F59
:10170200501FEEB50705785B1218AD785DE2FB0855
:10171200E2FA08E2F978611219347861E204F2809F
:01172200D6F0
:0117230022A3
:0A1798007864EBF208EAF208E9F2C7
:1017A2001218B3E47868F27868E2FFC394595016CD
:1017B2007864E2FB08E2FA08E2F98F8212193778BC
:0617C20068E204F280E180
:0117C80022FE
:0B169D00786BEBF27869EFF208EDF2D9
:1016A80008E224D0F21218B3E4F9E9B4060578691F
:1016B8001218AD786BE275F00CA42489F582E43435
:1016C80014F583E58229F582E43583F583E493FFF5
:0816D80012193E09E9B40CD21D
:0116E00022E7
:10000300EF1FAA0670011E4A60107C137D88ED1D48
:0A001300AA0470011C4A60E880F4A2
:01001D0022C0
:0C199F00C2AF53E71843E70343E7802280
:0919CA0053E77FE4F5E6D2AF22F9
:0B19AB0012199F75E64675E6B9002290
:101948008FE3AF058FE453E5F843E5011219AB12B5
:0519580019CAAFE222F4
:101971008FE3AF058FE453E5F843E5031219AB009C
:031981000219CA7E
:1018F100AE058EE3AE038EE453E5F843E5028FE2D5
:071901001219AB000219CA24
:10137E00786CEBF208EAF208E9F2AC05786CE2FB65
:10138E0008E2FA08E2F912109EFF7870E2FB1218DA
:10139E00F1786CE2FB08E2FA08E2F9900001121013
:1013AE00B7FF7870E204FB1218F1786CE2FB08E2EA
:1013BE00FA08E2F99000021210B7FF7870E22402E8
:1013CE00FB1218F1786CE2FB08E2FA08E2F99000E1
:1013DE00031210B7FF7870E22403FB1218F1786C39
:1013EE00E2FB08E2FA08E2F99000041210B7FF7867
:0813FE0070E22404FB0218F167
:1017F600AC05AA07AB02E4FF1218F1EA04FB1218C3
:10180600F1EA2402FB1218F1EA2403FB1218F1EAAA
:061816002404FB0218F19E
:04172400AC07AA055F
:10172800EAB40107AD03121948AE07EAB4020BAFD9
:1017380004EB2405FD121948AE07EAB4030BAF0405
:10174800EB240AFD121948AE07EAB4040BAF04EB08
:0A175800240FFD121948AE07AF067A
:011762002264
:1012FE00020026E493A3F8E493A34003F68001F2E0
:10130E0008DFF48029E493A3F85407240CC8C333F0
:10131E00C4540F4420C8834004F456800146F6DFBF
:10132E00E4800B0102040810204080901265E47ED8
:10133E00019360BCA3FF543F30E509541FFEE493B4
:10134E00A360010ECF54C025E060A840B8E493A37B
:10135E00FAE493A3F8E493A3C8C582C8CAC583CAA6
:10136E00F0A3C8C582C8CAC583CADFE9DEE780BE5E
:0112F10000FC
:10107C00C2D530F707B2D563F0FF05F030E70CB2FC
:10108C00D5F4048463F0FF05F080018430D502F4BC
:02109C0004222C
:10109E00BB010689828A83E0225002E722BBFE0250
:0910AE00E32289828A83E4932283
:1010B700BB010CE58229F582E5833AF583E02250EE
:1010C70006E92582F8E622BBFE06E92582F8E22238
:0D10D700E58229F582E5833AF583E4932252
:1010E400EF8DF0A4A8F0CF8CF0A428CE8DF0A42E20
:0210F400FE22DA
:1010F600EB9FF5F0EA9E42F0E99D42F0E89C45F050
:0111060022C6
:0C110700ECF208EDF208EEF208EFF22224
:10111300D083D082E493F208740193F208740293AB
:09112300F208740393F2740473E2
:00000001FF
