:0300000002096092
:0C096000787FE4F6D8FD75811F0209784D
:1008F200E4FDFCC3ED9FEC9E5015E4FBFA0BBB003C
:0F090200010ABA04F8BB75F50DBD00010C80E4C5
:0109110022C3
:10094A00759850E4F587D2AC758921758BFD758D44
:06095A00FDD28ED2AF2297
:0C096C00C2AC8F993099FDC299D2AC2228
:03002300020912BD
:0D091200C0E0C0F0C083C082C0D075D01816
:07091F00C298AF991208B362
:0B092600D0D0D082D083D0F0D0E032DF
:1008B300EF14B4070050379008C875F003A4C5833C
:1008C30025F0C583730208DD0208E00208E302088D
:1008D300E60208E90208EC0208EFB29022B2912284
:0F08E300B29222B29322B29422B29522B29622FE
:100931007580FF75A0FFAF80E5A0547FFEBFFF0665
:08094100BE7F037F00227F014D
:01094900228B
:100800007F0A7E001208F2120931EF70030208AF6E
:10081000AF8085A00853087FEFF46046EF24816025
:100820003724C0602F24E0602724F0601F24F86084
:100830001724FC600F24FE60071470237F01801AC8
:100840007F0280167F0380127F04800E7F05800A5E
:100850007F0680067F0780027F0812096C8003757F
:1008600009FFE508647F603FE50824C1602F24E0AC
:10087000602724F0601F24F8601724FC600F24FE1A
:10088000600714701F7F1580167F1480127F1380FD
:100890000E7F12800A7F1180067F1080027F09126E
:1008A000096C80037509FF120931EF600580F87546
:0208B00009FF3E
:0108B2002223
:0A09780012094AE4FF12096C80F92D
:00000001FF
