:0300000002119852
:0C119800787FE4F6D8FD75817F0211DF3E
:0A171C003F065B4F666D7D077F6F8F
:1012A60002100001053B00000000000112000124AD
:1012B6000002470000012300041F00000000022571
:1012C600000002150000014200021900000B4BFC51
:1012D60060DAF266B6BEE0FEF6020245000002568D
:1012E600FFFB022B000002430000021D0000023932
:1012F6000001024900000217000002130000023735
:101306000000024000000A2D00000000000000005E
:10131600000004270000000002580000021B000025
:10167000C2A5E4F57F7F407E9C121638057FE57F8A
:0E168000C3940440F0D2A57F307E7502163868
:10139F00E4F55D7F407E9C121638055DE55DC394D4
:1013AF000440F0D2A57F307E75121638C2A5E4F541
:1013BF005D7F407E9C121638055DE55DC394044049
:1013CF00F0D2A57F307E75121638C2A5E4F55D7F89
:1013DF00407E9C121638055DE55DC3940440F0D243
:0813EF00A57F307E750216385F
:1016C600759850E4F587D2AC758920758DF8758BC1
:0616D600F8D28ED2AF2213
:0F170100C2ACEF2430F5993099FDC299D2AC22D9
:100003007F45120017120017120017120017120073
:0400130017120017A9
:0C001700C2AC8F993099FDC299D2AC2286
:100EBE00E53424D0FFE53334FFFE7C007D0A120DAD
:100ECE0027E53624D0CDE53534FFCD2FFBED3EFAA8
:100EDE00E53224D0FFE53134FFFE7D64120D27EF9D
:100EEE002BFBEE3AFAE53024D0FFE52F34FFFE7CE3
:100EFE00037DE8120D27EF2BF54AEE3AF549E5385A
:100F0E0024D0FFE53734FFFE7C007D0A120D27E565
:100F1E003A24D0CDE53934FFCD2FF53AED3EF539F3
:100F2E00D3E54A9514E54995134017E4F537F5389E
:100F3E00E54A9514F541E5499513F5408549138524
:100F4E004A14C3E54A9514E54995135019753700AF
:100F5E00753801C3E514954AF541E5139549F540F9
:100F6E00854913854A141216341216341216347F1C
:060F7E00207E4E02163831
:040F84008E5C8F5D93
:100F8800E4F55E121634055EE55EC3940F40F47F07
:100F98004B120017AF1EEF75F00A8475F00A84E54E
:100FA800F02430FF120017AF1EEF75F00A84E5F049
:100FB8002430FF1200177F4D120017AF11EF75F0A4
:100FC8000A8475F00A84E5F02430FF120017AF1187
:100FD800EF75F00A84E5F02430FF1200177F411204
:100FE80000177F32120017E55D455C700575240116
:100FF8008003E4F524E4FBAE5CAF5D7C007D0A125F
:101008000D8EAF05121701AE5CAF5D7C007D0A1234
:101018000D8E8E5C8F5D0BBB05DDAF57121701E59A
:1010280057B4FD0AE556B4FF057512018003E4F5CF
:06103800127F45020017C3
:10089C00E4FB744B2BF8E6B53B0EEB751900F51A1F
:1008AC000546E546700205450BBB0AE6E54645459F
:1008BC00700CE53B70080546E54670020545E546BB
:1008CC0045457013E53BB4020E0546E5467002053E
:1008DC00457556FF7557FDE4FB744B2BF8E6B53C9C
:1008EC0018EB75F00AA4AEF0251AF51AEE3519F5C9
:1008FC00190546E546700205450BBB0ADCE5466466
:10090C00014545700CE53C70080546E5467002054E
:10091C0045E546640145457013E53CB4020E0546B9
:10092C00E546700205457556FF7557FDE5466401B1
:10093C004545700BE53CB4EE06752B00752C01E4B7
:10094C00FB744B2BF8E6B53D18EB75F064A4AEF0D8
:10095C00251AF51AEE3519F5190546E54670020506
:10096C00450BBB0ADCE54664024545700CE53D7061
:10097C00080546E54670020545E5466402454570A6
:10098C0013E53DB4020E0546E54670020545755665
:10099C00FF7557FDE4FB744B2BF8E6B53E1DEBFFE2
:1009AC007E007C037DE8120D27EF251AF51AEE3533
:1009BC0019F5190546E546700205450BBB0AD7E546
:1009CC004664034545700CE53E70080546E54670E7
:1009DC00020545E546640345457013E53EB4020E39
:1009EC000546E546700205457556FF7557FDE53F12
:1009FC00B4B6080546E54670020545E5466404456F
:100A0C0045700CE53F70080546E54670020545E566
:100A1C0046640545457007AF1AAE19120F84E4F50C
:100A2C0045F546F519F51A7556FF7557FBF52BF577
:010A3C002C8D
:010A3D002296
:1012240030900B3092FD2092FD2092F480FBE4FF7D
:101234002092FD3092FD309002053BE53B25E0F520
:101244003B0FBF08EBE4FF2092FD3092FD3090028B
:10125400053CE53C25E0F53C0FBF08EBE4FF20929C
:10126400FD3092FD309002053DE53D25E0F53D0F52
:10127400BF08EBE4FF2092FD3092FD309002053E62
:10128400E53E25E0F53E0FBF08EBE4FF2092FD307C
:1012940092FD309002053FE53F25E0F53F0FBF0387
:0112A400EB5E
:0112A5002226
:03002300020DD5F6
:100DD500C0E0C0D075D008C2AC209803020EB7E5BC
:100DE50099B45406751B00751C00AF99E51C25E0E8
:100DF500242DF8760008A60FC298051CE51C700284
:100E0500051B6407451B6003020EB7F51BF51CE5C2
:100E150044641145437015E52E644F452D700DE56D
:100E2500306450452F7005F51775181FE5446401AA
:100E350045436008E544641245437076E52E643009
:100E4500452D6020E52E6431452D6018E52E644161
:100E5500452D6010E52E6445452D6008E52E64544A
:100E6500452D704EE52E6441452D7009F5437544B9
:100E750007F523803DE52E6445452D7029E5306451
:100E850052452F7005F543754406E5306450452FEE
:100E95007005F54375440BE5306447452F7013F530
:100EA5004375440C800C7517007518017543007562
:090EB5004401D2ACD0D0D0E032EF
:1013F700E4F55FF55EF55DF55CE526452570402073
:10140700A717E55F2401F55FE4355EF55EE4355D1A
:10141700F55DE4355CF55C8009E4F55FF55EF55D47
:10142700F55CE47F2C7E01FDFCAB5FAA5EA95DA89D
:0F1437005CD3120DC440C275250075260180BA22
:011446002283
:100BCC00121634121634121634121634121634123B
:100BDC001634121634121634121634121634C293FA
:100BEC00C294E4F55D7F107E27121638055DE55D35
:100BFC00C3941940F0D293D294E4F55D12163405E7
:100C0C005DE55DC3943740F4121634121634121697
:100C1C0034121634121634121634121634E53845C2
:100C2C0037704DF561F560F55FF55EAE40AF41E4B0
:100C3C00FCFDAB61AA60A95FA85EC3120DC4503065
:100C4C007F707E17121638C2947F347E21121638AC
:100C5C00D2947F707E17121638E5612401F561E499
:100C6C003560F560E4355FF55FE4355EF55E80BBBD
:100C7C00E53864014537704DF561F560F55FF55E5B
:100C8C00AE40AF41E4FCFDAB61AA60A95FA85EC3B6
:100C9C00120DC450307F707E17121638C2937F34F9
:100CAC007E21121638D2937F707E17121638E561AA
:100CBC002401F561E43560F560E4355FF55FE435FA
:0B0CCC005EF55E80BB75170075181404
:010CD70022FA
:0615B7007E00AD5C7C002B
:0415BD00AB07AA06C8
:1015C1007F017E00EFA805088005C333CE33CED856
:1015D100F9FFEE5AFEEF5B4E7E0060047F01800250
:0215E1007F0089
:0115E30022E5
:0F0A3E00752301752A4075274075293F75283F9C
:100A4D00C290C2927FE87E03121638D2927FE87E62
:100A5D0003121638C2927FF47E01121638D2907F9F
:100A6D00F47E01121638D2927FE87E03121638C238
:100A7D00927FF47E01121638C2907FF47E01121619
:100A8D0038E4F55CAF271215B7EF64014E7004D250
:100A9D00908002C290D2927FE87E03121638C292E5
:100AAD007FF47E01121638C2907FF47E0112163843
:100ABD00055CE55CC3940840CBE4F55CAF281215EA
:100ACD00B7EF64014E7004D2908002C290D2927F33
:100ADD00E87E03121638C2927FF47E01121638C2D8
:100AED00907FF47E01121638055CE55CC3940840D6
:100AFD00CBE4F55CAF291215B7EF64014E7004D24B
:100B0D00908002C290D2927FE87E03121638C29274
:100B1D007FF47E01121638C2907FF47E01121638D2
:100B2D00055CE55CC3940840CBE4F55CAF2A121577
:100B3D00B7EF64014E7004D2908002C290D2927FC2
:100B4D00E87E03121638C2927FF47E01121638C267
:100B5D00907FF47E01121638055CE55CC394084065
:100B6D00CBC290D2927FE87E03121638C2927FF4E8
:100B7D007E01121638C2907FF47E01121638C29093
:100B8D00D2927FE87E03121638C2927FF47E011254
:100B9D001638C2907FF47E01121638D292D2907F11
:100BAD00E87E03121638C292D2907FF47E0112169F
:0E0BBD0038C2907F887E13121638D292D290E2
:010BCB002207
:10158700752A73752940EF75F00A120CD8AEF0EE84
:1015970090171C93F527EF75F00A120CD8FF75F01A
:1015A7000A120CD8AEF0EE90171C93F528020A4DDC
:1014D200AF3AEF75F00A84AEF0EE90171C93F52741
:1014E200EF75F00A8475F00A84AEF0EE93F528AF3A
:1014F2001EEF75F00A84AEF0EE932480F529EF75A5
:10150200F00A84FF75F00A84AEF0EE93F52A020A1F
:011512004D8B
:1010F800E4F55C7F107E27121638055CE55CC39426
:101108006440F0120BCCC293E4F55C7F107E27128A
:101118001638055CE55CC3946440F0E4F55C7F1028
:101128007E27121638055CE55CC3946440F0E4F54C
:101138005C7F107E27121638055CE55CC39464401A
:10114800F0E4F55C7F107E27121638055CE55CC379
:10115800946440F0E4F55C7F107E27121638055C35
:10116800E55CC3946440F0E4F55C7F107E271216BA
:1011780038055CE55CC3946440F0D293C2961216BD
:1011880034121634D2967F987E3A12163802139F7C
:031736000210F8A6
:10002600E4F55AF55BE5444543700912171075432C
:100036000075444DE544644D4543701220950F12FA
:100046001634121634121634754300754411E544FD
:1000560064114543600302016FE51845176003020A
:1000660001580559E559700205587F987E3A1216CF
:10007600387F987E3A1216387F987E3A1216387F65
:10008600987E3A1216387F987E3A1216387F987EF6
:100096003A1216387F987E3A1216387F987E3A12B0
:1000A60016387F987E3A1216387F987E3A1216389E
:1000B6007F987E3A1216387F987E3A1216387F98C5
:1000C6007E3A1216387F987E3A1216387F987E3A14
:1000D6001216387F987E3A1216387F987E3A121694
:1000E600387F987E3A1216387F987E3A1216387FF5
:1000F600987E3A1216387F987E3A1216387F987E86
:100106003A1216387F987E3A1216387F987E3A123F
:1001160016387F987E3A1216387F987E3A1216382D
:100126007F531200171200037F987E3A1216387F0B
:10013600987E3A1216387F987E3A1216387F987E45
:100146003A1216387F987E3A1216387F987E3A12FF
:100156001638E518641F4517700F12173612163435
:10016600121634754300754442E5446442454370B3
:10017600251213F7E52664014525701AC2B5F54325
:10018600754404F517F518F525F526C290C29212A6
:100196001634D290D292E5446404454360030202C9
:1001A6005E1216341216341216341216341213F75F
:1001B600C2B4E4F525F526E51645157028C2B51234
:1001C6001634121634121634121634121634121647
:1001D60034121634D2B57FD07E071216380516E5CE
:1001E600167002051530931E051EE51E7002051DCC
:1001F600C39414E51D94004006751D00751E147FFA
:10020600607EEA121638309420E51E151E7002151F
:100216001DC3E51E9401E51D94005006751D00756D
:100226001E017F607EEA121638AF1E1215872095D2
:10023600277F607EEA121638754300754401120A5C
:1002460041E4F515F5161216341216341216341248
:100256001634121634121634E5446401454360031D
:100266000204A3E51845176003020311E523704451
:100276007F50120017851D5A851E5BAE5AAF5BFC78
:100286007D0A120D398E5A8F5B7C007D0A120D395C
:10029600ED2430FF120017851D5A851E5BAE5AAF3E
:1002A6005B7C007D0A120D39ED2430FF1200177FAA
:1002B60045120017E52364017012F51BF51CE518BD
:1002C600451770057F4A12001712000312163412E2
:1002D6001634121634121634121634121634121636
:1002E6003412163412163412163412163412163408
:1002F600121634121634121634121634121634121A
:100306001634121634121634121634E518640145E2
:1003160017702EC2AC7F987E3A1216387F907E01F7
:10032600121638120EBE1216341216341216341263
:100336001634121634121634121634751700751840
:1003460010E5186410451760030203F712163412FD
:100356001634121634121634E51645157025C2B534
:1003660012163412163412163412163412163412A9
:100376001634D2B57FD07E071216380516E51670EC
:10038600020515C2B47F987E3A1216381216341238
:1003960016341214D21216341216341216341216D9
:1003A600341214D2121634121634121634121634AB
:1003B600C2B7853910853A11209536209333D2B7C6
:1003C600752A4075274075293F752838120A4D123F
:1003D6001634121634121634120A4D121634121628
:1003E60034120A4D121634E4F515F516F51775187C
:1003F60003E5186403451760030204A312163412BA
:100406001634121634121634121634121634121307
:10041600F7D2B4E4F525F526C2B512163412163411
:1004260012163412163412163412163412163412E8
:1004360016341216341216341216341216341216D4
:1004460034121634121634121634121634121634A6
:10045600121634121634121634121634121634C208
:10046600B512163412163412163412163412163405
:10047600D2B57FD07E0712163812163412163412F1
:100486001634121634120BCC754300754409121635
:1004960034121634121634121634121634E5446425
:1004A6000645437045752A40752740752979752894
:1004B60050120A4D12162E12163412163412163413
:1004C6001216341216341216341216341216341248
:1004D6001634121634121634121634121634121634
:1004E60034121634121634121634E544640B45439E
:1004F6007045752A40752740752979752873120A43
:100506004D12162E121634121634121634121634D2
:1005160012163412163412163412163412163412F7
:1005260016341216341216341216341216341216E3
:1005360034121634121634E544640C45437045757E
:100546002A4075274075296F752850120A4D1216D4
:100556002E1216341216341216341216341216349B
:1005660012163412163412163412163412163412A7
:100576001634121634121634121634121634121693
:1005860034121634E54464074543600302062675B3
:100596002A40752740752977752838120A4D209507
:1005A60004C2B58002D2B5121634121634121634AD
:1005B6001216341216341216341216341216341257
:1005C6001634121634121634121634121634121643
:1005D60034121634121634121634E5164515703BCD
:1005E600C2B51216341216341216341216341216F6
:1005F60034121634121634121634121634121634F5
:100606001213F7D2B4E4F525F526D2B57FD07E07CE
:100616001216380516E51670020515C2AC12163408
:10062600E5446409454370481216341216347F4077
:100636007E9C121638C2967F407E9C121638D29641
:10064600754300754402121634121634121634120B
:1006560016341216341216341216341216341216B2
:100666003412163412163412163412163412163484
:10067600E544640D45437026752A50752740752953
:1006860079752850120A4DE4F543F54412163412D2
:100696001634121634121634121634121634E54471
:1006A60064024543600302003A12122412089C12A7
:1006B6001634121634121634121634121634121652
:1006C60034E5127008E5247004F547F548E5126430
:1006D600016009E5246401600302078B0548E548CB
:1006E60070020547D39404E5479400500302078B34
:1006F600E4F547F548F512F524F517F518F54375B1
:100706004401121634121634121634121634121606
:1007160034C2B51213F7C2B4E4F525F52612163421
:10072600121634121634121634121634D2B57FD07D
:100736007E07121638121634121634121634121692
:1007460034121634121634121634121634121634A3
:10075600121634120A3E12163412163412163412B7
:100766001634121634121634D2AC1216341216344B
:100776001216341216341216341216341216341295
:10078600163412163430950302003A3094030200F0
:100796003AE4F517F518F5437544011216341216A6
:1007A60034121634121634121634121634C2B51216
:1007B60013F7C2B4E4F525F52612163412163412D0
:1007C6001634121634121634D2B57FD07E0712169E
:1007D600381216341216341216341216341216340F
:1007E6001216341216341216341216341216341225
:1007F6001634121634121634121634121634121611
:1008060034121634121634121634121634121634E2
:1008160012163412163412163412163412163412F4
:100826001634121634121634120A3E1216341216E2
:1008360034121634121634121634121634121634B2
:1008460012163412163412163412163412163412C4
:1008560016341216341216341216341216341216B0
:1008660034121634121634121634121634C2971273
:100876001634121634121634121634C2971216345F
:10088600121634D297121634121634121634121661
:0608960034D2AC02003A6E
:0C1710001217301214471216C6C2A6228F
:06173000D2AFE4F5C72270
:0A162E007543007544047F207E4ED2
:10163800D3EF9400EE9400400D7D0A1DBD02FCEF2F
:061648001F70ED1E80EA98
:01164E002279
:1016DC00C2AFC28C758901758CD8758AF0D2B9D21B
:0416EC00A9D2AF22AE
:10132700FFFF0303FFFF0303030303030607FFFF97
:101337000000030303030303F3F333333F3F0303C4
:101347000303030333333333FFFF030303030303AE
:101357003F3F3030FFFF0000000003033F3F3333C0
:10136700F3F3030303030303FFFF3333F3F303032E
:101377000303030303030303FFFF0000000003034A
:10138700FFFF3333FFFF0303030303033F3F3333FE
:08139700FFFF0303030303033E
:0715E4001217267F647E0050
:1015EB00D3EF9400EE940040147D7D7C00ED1D70D4
:0D15FB00011CED4C70F7EF1F70E61E80E341
:0116080022BF
:10160900C2A27D087C000000EF54806004D2A4804F
:1016190002C2A4C2A2EF25E0FFD2A2ED1D70011CF7
:04162900ED4C70E232
:01162D00229A
:0A172600C2A3C2A1121609D2A1222B
:0716F000758300120CFAFFE4
:0A16F700D2A3C2A1121609D2A1224B
:10164F007EB0AF061217267F10121726E4FF12176F
:10165F0026E4FBE4FF1216F70BBB80F70EBEB8E2D1
:01166F002258
:02168E00AE07A5
:10169000AB06ED24B0FF121726EBC4540FFB241049
:0B16A000FF121726EE540FFF02172662
:101447001215E7C2A01215E7D2A01215E77FA01266
:1014570017267FC81217267FA31217267F2C12156F
:10146700E47F2E1215E47F2F1217267F24121726EA
:101477007F811217267F101215E47FAF1217267F80
:071487004012172602164F68
:0A103E008F628D638B648A658966FA
:1010480012168EE4F568E56775F008A4FFC3E56835
:101058009FE5F06480F874809840030210F7E56813
:10106800B56705E563048070E56775F002A4B568A7
:101078000AE4B5F006E5632402805DE56775F003D0
:10108800A4B5680AE4B5F006E5632403804AE56779
:1010980075F004A4B5680AE4B5F006E56324048095
:1010A80037E56775F005A4B5680AE4B5F006E563A9
:1010B80024058024E56775F006A4B5680AE4B5F050
:1010C80006E56324068011E56775F007A4B5680E88
:1010D800E4B5F00AE5632407FDAF6212168EAB642F
:0F10E800AA65A9668568821216F0056802104E87
:0110F70022D6
:0A148E008F698D6A8B6B8A6C896D83
:1014980012168EE4F56FE56E75F002A4FFC3E56FD2
:1014A8009FE5F06480F8748098501EE56FB56E096A
:1014B800E56A04FDAF6912168EAB6BAA6CA96D853F
:0914C8006F821216F0056F80CD51
:0114D10022F8
:0A1551008F708D718B728A7389749C
:10155B0012168EE4F576E576C39575501EE576B5D5
:10156B007509E57104FDAF7012168EAB72AA73A9E3
:0B157B00748576821216F0057680DB86
:011586002242
:0616AB008B798A7A897B2D
:1016B10012168EE4FEAB79AA7AA97B8E821216F0FD
:0416C1000EBE59F10F
:0116C5002202
:061513008F7D8D7EA9030F
:1015190074D029F912168EE4FABA0609E57E04FD9B
:10152900AF7D12168EE975F00CA42427F582E434F8
:1015390013F583E5822AF582E43583F583E493FF85
:071549001216F70ABA0CD2DA
:011550002278
:1011A400020026E493A3F8E493A34003F68001F23B
:1011B40008DFF48029E493A3F85407240CC8C3334C
:1011C400C4540F4420C8834004F456800146F6DF1B
:1011D400E4800B01020408102040809012A6E47EF3
:1011E400019360BCA3FF543F30E509541FFEE49310
:1011F400A360010ECF54C025E060A840B8E493A3D7
:10120400FAE493A3F8E493A3C8C582C8CAC583CA01
:10121400F0A3C8C582C8CAC583CADFE9DEE780BEB9
:0113260000C6
:100CD800C2D530F707B2D563F0FF05F030E70CB2A4
:100CE800D5F4048463F0FF05F080018430D502F464
:020CF8000422D4
:100CFA00BB010CE58229F582E5833AF583E02250AF
:100D0A0006E92582F8E622BBFE06E92582F8E222F8
:0D0D1A00E58229F582E5833AF583E4932212
:100D2700EF8DF0A4A8F0CF8CF0A428CE8DF0A42EE0
:020D3700FE229A
:100D3900BC000BBE0029EF8DF084FFADF022E4CC9E
:100D4900F875F008EF2FFFEE33FEEC33FCEE9DEC67
:100D5900984005FCEE9DFE0FD5F0E9E4CEFD22EDAD
:100D6900F8F5F0EE8420D21CFEADF075F008EF2FF7
:100D7900FFED33FD4007985006D5F0F222C398FDE8
:050D89000FD5F0EA2285
:100D8E00C2D5EC30E709B2D5E4C39DFDE49CFCEE80
:100D9E0030E715B2D5E4C39FFFE49EFE120D39C3B2
:100DAE00E49DFDE49CFC8003120D3930D507C3E4AD
:060DBE009FFFE49EFE22EF
:100DC400EB9FF5F0EA9E42F0E99D42F0E89C45F085
:010DD40022FC
:00000001FF
